{
  "contractName": "Fundraising",
  "abi": [
    {
      "inputs": [
        {
          "internalType": "uint256",
          "name": "_goal",
          "type": "uint256"
        },
        {
          "internalType": "uint256",
          "name": "_deadline",
          "type": "uint256"
        },
        {
          "internalType": "address",
          "name": "_creator",
          "type": "address"
        }
      ],
      "stateMutability": "nonpayable",
      "type": "constructor"
    },
    {
      "anonymous": false,
      "inputs": [
        {
          "indexed": true,
          "internalType": "address",
          "name": "_from",
          "type": "address"
        },
        {
          "indexed": true,
          "internalType": "address",
          "name": "_to",
          "type": "address"
        },
        {
          "indexed": false,
          "internalType": "uint256",
          "name": "_value",
          "type": "uint256"
        }
      ],
      "name": "Contribute",
      "type": "event"
    },
    {
      "anonymous": false,
      "inputs": [
        {
          "indexed": true,
          "internalType": "uint256",
          "name": "_requestId",
          "type": "uint256"
        },
        {
          "indexed": false,
          "internalType": "uint256",
          "name": "_value",
          "type": "uint256"
        }
      ],
      "name": "MakePayment",
      "type": "event"
    },
    {
      "anonymous": false,
      "inputs": [
        {
          "indexed": true,
          "internalType": "address",
          "name": "_from",
          "type": "address"
        },
        {
          "indexed": true,
          "internalType": "uint256",
          "name": "_requestId",
          "type": "uint256"
        }
      ],
      "name": "RequestCreated",
      "type": "event"
    },
    {
      "inputs": [],
      "name": "admin",
      "outputs": [
        {
          "internalType": "address",
          "name": "",
          "type": "address"
        }
      ],
      "stateMutability": "view",
      "type": "function"
    },
    {
      "inputs": [
        {
          "internalType": "address",
          "name": "",
          "type": "address"
        }
      ],
      "name": "contributors",
      "outputs": [
        {
          "internalType": "uint256",
          "name": "",
          "type": "uint256"
        }
      ],
      "stateMutability": "view",
      "type": "function"
    },
    {
      "inputs": [],
      "name": "deadline",
      "outputs": [
        {
          "internalType": "uint256",
          "name": "",
          "type": "uint256"
        }
      ],
      "stateMutability": "view",
      "type": "function"
    },
    {
      "inputs": [],
      "name": "goal",
      "outputs": [
        {
          "internalType": "uint256",
          "name": "",
          "type": "uint256"
        }
      ],
      "stateMutability": "view",
      "type": "function"
    },
    {
      "inputs": [],
      "name": "minimumContribution",
      "outputs": [
        {
          "internalType": "uint256",
          "name": "",
          "type": "uint256"
        }
      ],
      "stateMutability": "view",
      "type": "function"
    },
    {
      "inputs": [],
      "name": "numberOfContributors",
      "outputs": [
        {
          "internalType": "uint256",
          "name": "",
          "type": "uint256"
        }
      ],
      "stateMutability": "view",
      "type": "function"
    },
    {
      "inputs": [],
      "name": "raisedAmount",
      "outputs": [
        {
          "internalType": "uint256",
          "name": "",
          "type": "uint256"
        }
      ],
      "stateMutability": "view",
      "type": "function"
    },
    {
      "inputs": [
        {
          "internalType": "uint256",
          "name": "",
          "type": "uint256"
        }
      ],
      "name": "requests",
      "outputs": [
        {
          "internalType": "string",
          "name": "description",
          "type": "string"
        },
        {
          "internalType": "address payable",
          "name": "recipient",
          "type": "address"
        },
        {
          "internalType": "uint256",
          "name": "value",
          "type": "uint256"
        },
        {
          "internalType": "bool",
          "name": "completed",
          "type": "bool"
        },
        {
          "internalType": "uint256",
          "name": "numberOfVoters",
          "type": "uint256"
        }
      ],
      "stateMutability": "view",
      "type": "function"
    },
    {
      "inputs": [],
      "name": "contribute",
      "outputs": [
        {
          "internalType": "bool",
          "name": "",
          "type": "bool"
        }
      ],
      "stateMutability": "payable",
      "type": "function"
    },
    {
      "inputs": [],
      "name": "getBalance",
      "outputs": [
        {
          "internalType": "uint256",
          "name": "",
          "type": "uint256"
        }
      ],
      "stateMutability": "view",
      "type": "function"
    },
    {
      "inputs": [],
      "name": "getRefund",
      "outputs": [],
      "stateMutability": "nonpayable",
      "type": "function"
    },
    {
      "inputs": [
        {
          "internalType": "string",
          "name": "_description",
          "type": "string"
        },
        {
          "internalType": "address payable",
          "name": "_recipient",
          "type": "address"
        },
        {
          "internalType": "uint256",
          "name": "_value",
          "type": "uint256"
        }
      ],
      "name": "createRequest",
      "outputs": [
        {
          "internalType": "bool",
          "name": "",
          "type": "bool"
        }
      ],
      "stateMutability": "nonpayable",
      "type": "function"
    },
    {
      "inputs": [
        {
          "internalType": "uint256",
          "name": "index",
          "type": "uint256"
        }
      ],
      "name": "voteRequest",
      "outputs": [
        {
          "internalType": "bool",
          "name": "",
          "type": "bool"
        }
      ],
      "stateMutability": "nonpayable",
      "type": "function"
    },
    {
      "inputs": [
        {
          "internalType": "uint256",
          "name": "index",
          "type": "uint256"
        }
      ],
      "name": "makePayment",
      "outputs": [
        {
          "internalType": "bool",
          "name": "",
          "type": "bool"
        }
      ],
      "stateMutability": "nonpayable",
      "type": "function"
    }
  ],
  "bytecode": "0x60806040526000600655600060075534801561001a57600080fd5b50604051610f18380380610f188339818101604052606081101561003d57600080fd5b810190808051906020019092919080519060200190929190805190602001909291905050508260058190555081420160048190555080600160006101000a81548173ffffffffffffffffffffffffffffffffffffffff021916908373ffffffffffffffffffffffffffffffffffffffff16021790555067016345785d8a0000600381905550505050610e44806100d46000396000f3fe6080604052600436106100dd5760003560e01c80635114cb521161007f578063b2d5ae4411610059578063b2d5ae44146104b0578063c59ee1dc146104c7578063d7bb99ba146104f2578063f851a44014610512576100dd565b80635114cb521461034c57806381d12c581461039d578063937e09b114610485576100dd565b806329dcb0cf116100bb57806329dcb0cf1461027a57806340193883146102a55780634377cf65146102d05780634cb6f4a5146102fb576100dd565b806312065fe0146100e25780631b16bb5c1461010d5780631f6d494214610215575b600080fd5b3480156100ee57600080fd5b506100f7610553565b6040518082815260200191505060405180910390f35b34801561011957600080fd5b506101fd6004803603606081101561013057600080fd5b810190808035906020019064010000000081111561014d57600080fd5b82018360208201111561015f57600080fd5b8035906020019184600183028401116401000000008311171561018157600080fd5b91908080601f016020809104026020016040519081016040528093929190818152602001838380828437600081840152601f19601f820116905080830192505050505050509192919290803573ffffffffffffffffffffffffffffffffffffffff1690602001909291908035906020019092919050505061055b565b60405180821515815260200191505060405180910390f35b34801561022157600080fd5b506102646004803603602081101561023857600080fd5b81019080803573ffffffffffffffffffffffffffffffffffffffff1690602001909291905050506106bf565b6040518082815260200191505060405180910390f35b34801561028657600080fd5b5061028f6106d7565b6040518082815260200191505060405180910390f35b3480156102b157600080fd5b506102ba6106dd565b6040518082815260200191505060405180910390f35b3480156102dc57600080fd5b506102e56106e3565b6040518082815260200191505060405180910390f35b34801561030757600080fd5b506103346004803603602081101561031e57600080fd5b81019080803590602001909291905050506106e9565b60405180821515815260200191505060405180910390f35b34801561035857600080fd5b506103856004803603602081101561036f57600080fd5b8101908080359060200190929190505050610832565b60405180821515815260200191505060405180910390f35b3480156103a957600080fd5b506103d6600480360360208110156103c057600080fd5b81019080803590602001909291905050506109c2565b60405180806020018673ffffffffffffffffffffffffffffffffffffffff1681526020018581526020018415158152602001838152602001828103825287818151815260200191508051906020019080838360005b8381101561044657808201518184015260208101905061042b565b50505050905090810190601f1680156104735780820380516001836020036101000a031916815260200191505b50965050505050505060405180910390f35b34801561049157600080fd5b5061049a610abd565b6040518082815260200191505060405180910390f35b3480156104bc57600080fd5b506104c5610ac3565b005b3480156104d357600080fd5b506104dc610c03565b6040518082815260200191505060405180910390f35b6104fa610c09565b60405180821515815260200191505060405180910390f35b34801561051e57600080fd5b50610527610d4b565b604051808273ffffffffffffffffffffffffffffffffffffffff16815260200191505060405180910390f35b600047905090565b6000600160009054906101000a900473ffffffffffffffffffffffffffffffffffffffff1673ffffffffffffffffffffffffffffffffffffffff163373ffffffffffffffffffffffffffffffffffffffff16146105b757600080fd5b600060086000600760008154809291906001019190505581526020019081526020016000209050848160000190805190602001906105f6929190610d71565b50838160010160006101000a81548173ffffffffffffffffffffffffffffffffffffffff021916908373ffffffffffffffffffffffffffffffffffffffff16021790555082816002018190555060008160030160006101000a81548160ff021916908315150217905550600081600401819055506001600754033373ffffffffffffffffffffffffffffffffffffffff167f85dcc3449f98075b485886e476487433e044f2db02a65b5bf5d29e92392b5c2c60405160405180910390a360019150509392505050565b60006020528060005260406000206000915090505481565b60045481565b60055481565b60025481565b600060075482106106f957600080fd5b60008060003373ffffffffffffffffffffffffffffffffffffffff1673ffffffffffffffffffffffffffffffffffffffff168152602001908152602001600020541161074457600080fd5b6000600860008481526020019081526020016000209050600015158160050160003373ffffffffffffffffffffffffffffffffffffffff1673ffffffffffffffffffffffffffffffffffffffff16815260200190815260200160002060009054906101000a900460ff161515146107ba57600080fd5b60018160050160003373ffffffffffffffffffffffffffffffffffffffff1673ffffffffffffffffffffffffffffffffffffffff16815260200190815260200160002060006101000a81548160ff02191690831515021790555080600401600081548092919060010191905055506001915050919050565b6000600160009054906101000a900473ffffffffffffffffffffffffffffffffffffffff1673ffffffffffffffffffffffffffffffffffffffff163373ffffffffffffffffffffffffffffffffffffffff161461088e57600080fd5b600754821061089c57600080fd5b6000600860008481526020019081526020016000209050600015158160030160009054906101000a900460ff161515146108d557600080fd5b60028054816108e057fe5b048160040154116108f057600080fd5b8060010160009054906101000a900473ffffffffffffffffffffffffffffffffffffffff1673ffffffffffffffffffffffffffffffffffffffff166108fc82600201549081150290604051600060405180830381858888f1935050505015801561095e573d6000803e3d6000fd5b5060018160030160006101000a81548160ff021916908315150217905550827f0aa3645b8b35728ed15c92cd744063b1558a7b10bc77e492eab841d11e54df5582600201546040518082815260200191505060405180910390a26001915050919050565b6008602052806000526040600020600091509050806000018054600181600116156101000203166002900480601f016020809104026020016040519081016040528092919081815260200182805460018160011615610100020316600290048015610a6e5780601f10610a4357610100808354040283529160200191610a6e565b820191906000526020600020905b815481529060010190602001808311610a5157829003601f168201915b5050505050908060010160009054906101000a900473ffffffffffffffffffffffffffffffffffffffff16908060020154908060030160009054906101000a900460ff16908060040154905085565b60035481565b6004544211610ad157600080fd5b60055460065410610ae157600080fd5b60008060003373ffffffffffffffffffffffffffffffffffffffff1673ffffffffffffffffffffffffffffffffffffffff1681526020019081526020016000205411610b2c57600080fd5b600033905060008060003373ffffffffffffffffffffffffffffffffffffffff1673ffffffffffffffffffffffffffffffffffffffff1681526020019081526020016000205490508173ffffffffffffffffffffffffffffffffffffffff166108fc829081150290604051600060405180830381858888f19350505050158015610bba573d6000803e3d6000fd5b5060008060003373ffffffffffffffffffffffffffffffffffffffff1673ffffffffffffffffffffffffffffffffffffffff168152602001908152602001600020819055505050565b60065481565b60006004544210610c1957600080fd5b600354341015610c2857600080fd5b60008060003373ffffffffffffffffffffffffffffffffffffffff1673ffffffffffffffffffffffffffffffffffffffff168152602001908152602001600020541415610c82576002600081548092919060010191905055505b346000803373ffffffffffffffffffffffffffffffffffffffff1673ffffffffffffffffffffffffffffffffffffffff1681526020019081526020016000206000828254019250508190555034600660008282540192505081905550600073ffffffffffffffffffffffffffffffffffffffff163373ffffffffffffffffffffffffffffffffffffffff167f3dbad08993b7c571c49ada845d4e0a4a24423f5bb227cfa69c9106520da1bea5346040518082815260200191505060405180910390a36001905090565b600160009054906101000a900473ffffffffffffffffffffffffffffffffffffffff1681565b828054600181600116156101000203166002900490600052602060002090601f016020900481019282601f10610db257805160ff1916838001178555610de0565b82800160010185558215610de0579182015b82811115610ddf578251825591602001919060010190610dc4565b5b509050610ded9190610df1565b5090565b5b80821115610e0a576000816000905550600101610df2565b509056fea264697066735822122019fe1deb562b8d1664e600342d0f5fd3ae7cb1d64c483ccac9f36fc519ca025264736f6c63430007000033",
  "immutableReferences": {},
  "source": "pragma solidity 0.7.0;\n\ncontract Fundraising {\n    mapping(address => uint256) public contributors;\n    address public admin;\n    uint256 public numberOfContributors;\n    uint256 public minimumContribution;\n    uint256 public deadline;\n    uint256 public goal;\n    uint256 public raisedAmount = 0;\n    uint256 requestCount = 0;\n    mapping(uint256 => Request) public requests;\n\n    struct Request {\n        string description;\n        address payable recipient;\n        uint256 value;\n        bool completed;\n        uint256 numberOfVoters;\n        mapping(address => bool) voters;\n    }\n\n    modifier onlyAdmin() {\n        require(msg.sender == admin);\n        _;\n    }\n\n    event Contribute(\n        address indexed _from,\n        address indexed _to,\n        uint256 _value\n    );\n\n    event RequestCreated(address indexed _from, uint256 indexed _requestId);\n    event MakePayment(uint256 indexed _requestId, uint256 _value);\n\n    constructor(\n        uint256 _goal,\n        uint256 _deadline,\n        address _creator\n    ) {\n        goal = _goal;\n        deadline = block.timestamp + _deadline;\n        admin = _creator;\n        minimumContribution = 0.1 ether;\n    }\n\n    function contribute() public payable returns (bool) {\n        require(block.timestamp < deadline);\n        require(msg.value >= minimumContribution);\n\n        if (contributors[msg.sender] == 0) {\n            numberOfContributors++;\n        }\n\n        contributors[msg.sender] += msg.value;\n        raisedAmount += msg.value;\n        emit Contribute(msg.sender, address(0), msg.value);\n        return true;\n    }\n\n    function getBalance() public view returns (uint256) {\n        return address(this).balance;\n    }\n\n    function getRefund() public {\n        require(block.timestamp > deadline);\n        require(raisedAmount < goal);\n        require(contributors[msg.sender] > 0);\n\n        address payable recipient = msg.sender;\n        uint256 value = contributors[msg.sender];\n        recipient.transfer(value);\n        contributors[msg.sender] = 0;\n    }\n\n    function createRequest(\n        string memory _description,\n        address payable _recipient,\n        uint256 _value\n    ) public onlyAdmin returns (bool) {\n        Request storage request = requests[requestCount++];\n        request.description = _description;\n        request.recipient = _recipient;\n        request.value = _value;\n        request.completed = false;\n        request.numberOfVoters = 0;\n        emit RequestCreated(msg.sender, requestCount - 1);\n        return true;\n    }\n\n    function voteRequest(uint256 index) public returns (bool) {\n        require(index < requestCount);\n        require(contributors[msg.sender] > 0);\n\n        Request storage request = requests[index];\n        require(request.voters[msg.sender] == false);\n\n        request.voters[msg.sender] = true;\n        request.numberOfVoters++;\n        return true;\n    }\n\n    function makePayment(uint256 index) public onlyAdmin returns (bool) {\n        require(index < requestCount);\n        Request storage request = requests[index];\n\n        require(request.completed == false);\n        require(request.numberOfVoters > numberOfContributors / 2);\n\n        request.recipient.transfer(request.value);\n        request.completed = true;\n        emit MakePayment(index, request.value);\n        return true;\n    }\n}\n",
  "sourcePath": "/Users/ssozuer/Desktop/library/blockchain/blockchain-code-repo/fundraising-smartcontract-demo/contracts/Fundraising.sol",
  "compiler": {
    "name": "solc",
    "version": "0.7.0+commit.9e61f92b.Emscripten.clang"
  },
  "schemaVersion": "3.3.3",
  "updatedAt": "2021-03-01T11:20:13.339Z",
  "devdoc": {
    "kind": "dev",
    "methods": {},
    "version": 1
  },
  "userdoc": {
    "kind": "user",
    "methods": {},
    "version": 1
  }
}